:04200000B3EF10F03A
:06200800438298EF31F065
:102018004380D8CF62F0E8CF63F0E0CF64F0D9CF47
:1020280065F0DACF66F0F3CF67F0F4CF68F0F6CF5B
:1020380069F0F7CF6AF0F8CF6BF0F5CF6CF00E01CE
:10204800BEB1C6A174D0C6915FCF0CF05ECF0BF0C5
:102058001B50020DB60EF324D96E000EF420DA6E72
:10206800DE500B26DD500C22D8900C300001616F39
:102078000B30606F1B50020DB60EF324D96E000EA4
:10208800F420DA6E60C0DEFF61C0DDFF09500A107F
:10209800D8A43FD0000E0A6E020E096E010E13D0AE
:1020A800090E1B18D8B407D0010E1B24416E426AD2
:1020B800000E422204D0000E426E000E416E41C056
:1020C8001BF003D0000E1A6E24D01B50030D4F0EC8
:1020D800F324D96E010EF420DA6EDF50000AD8B46A
:1020E80018D0010AD8B4EED7030AD8B412D0010A1E
:1020F800D8B4E8D7070AD8B40CD0010AD8B409D0A4
:10210800030AD8B4DFD7010AD8B403D00F0AD8A479
:10211800010A1A50D8A4C4D71B50010D950EF324F8
:10212800F66E210EF420F76E0800F5CF5AFF6CC04A
:10213800F5FF6BC0F8FF6AC0F7FF69C0F6FF68C01B
:10214800F4FF67C0F3FF66C0DAFF65C0D9FF64C05B
:10215800E0FF63C0E8FF62C0D8FF43901000FCEFC7
:102168002EF00001000200040008001000200040CA
:102178000080000001000200040008001000200098
:1021880040008001000A006400E8031027000102F3
:1021980003050A0B090C08557365722050726F67A6
:1021A80072616D2052756E6E696E67202E2E2E0D2F
:1021B8000A0023445352313630333A253033642CE5
:1021C800253033642C253033640D0A002342414CFA
:1021D8003A253033752C253033752C253033750D61
:1021E8000A00234D4F543A2563253033642C256368
:1021F800253033640D0A0023434E253032643A25D6
:10220800642C25303464005665722E3230323531F4
:102218003230350053656E7349443A25640D0A001F
:10222800235245503A25640D0A00234C4544257530
:102238003A257500234453522530347500445352CF
:1022480031313131004453523136303300537562E5
:10225800494F4D3A004D6F64653A005553453A3F32
:10226800005265736574005349443A0042414C3A40
:10227800005245503A004D4F543A00544A334200F8
:102288005553455F006E6F6E6500205B2000205D32
:0F22980020004C45440023434E004453520000A5
:1022A800000E0101CF6F000ECE6FC369C469F3EF52
:1022B80015F0CEC16DF0CFC16EF0000E0001706F49
:1022C8000C0E6F6FFDEC35F0000E00016D25D96E18
:1022D800050E6E21DA6EDF500101C06F010EC325B5
:1022E8000001A46F000E0101C4210001A56F0101C6
:1022F800CE510001A41906E10101CF510001A51931
:10230800D8B402D0010E01D0000E0101BE6FBF6B20
:10231800CEC1CAF1CFC1CBF1CCEF15F0CEC16DF073
:10232800CFC16EF0000E0001706F0C0E6F6FFDECE8
:1023380035F0010E00016D27000E6E23000E6D258D
:10234800D96E050E6E21DA6EDF500101AA6FCEC17B
:102358006DF0CFC16EF0000E0001706F0C0E6F6F44
:10236800FDEC35F0020E00016D27000E6E23000E05
:102378006D25D96E050E6E21DA6EDF500101AB6F47
:10238800AA510001746F756B74BF75070101AB51D9
:102398000001766F776B76BF770702EC16F0ECEFEB
:1023A80015F0CEC16DF0CFC16EF0000E0001706F58
:1023B8000C0E6F6FFDEC35F0010E00016D27000E5D
:1023C8006E23000E6D25D96E050E6E21DA6EDF5074
:1023D800A46FA451A66FA56BCEC16DF0CFC16EF0EE
:1023E800000E706F0C0E6F6FFDEC35F0020E0001E1
:1023F8006D27000E6E23000E6D25D96E050E6E2119
:10240800DA6EDF50A76FA751A5110101A26F000175
:10241800A6510101A36FA2C16DF0A3C16EF0E9EC52
:1024280035F0D6D3CEC16DF0CFC16EF0000E0001ED
:10243800706F0C0E6F6FFDEC35F0010E00016D270B
:10244800000E6E23000E6D25D96E050E6E21DA6E14
:10245800DF500101AC6FCEC16DF0CFC16EF0000E40
:102468000001706F0C0E6F6FFDEC35F0020E00016D
:102478006D27000E6E23000E6D25D96E050E6E2198
:10248800DA6EDF500101AD6FCEC16DF0CFC16EF0D5
:10249800000E0001706F0C0E6F6FFDEC35F0030E2F
:1024A80000016D27000E6E23000E6D25D96E050EF6
:1024B8006E21DA6EDF500101AE6FCEC16DF0CFC173
:1024C8006EF0000E0001706F0C0E6F6FFDEC35F0B2
:1024D800040E00016D27000E6E23000E6D25D96EC7
:1024E800050E6E21DA6EDF500101AF6FACC16DF0E1
:1024F80000016E6B030E706FE80E6F6FFDEC35F028
:102508000101AD510A0DF35000016D27F4506E23FF
:102518000101AE51640DF35000016D27F4506E2394
:102528000101AF5100016D250101A46F000E0001EA
:102538006E210101A56FA4C179F0A5C17AF05AEC0A
:1025480031F046D3CEC16DF0CFC16EF0000E000160
:10255800706F0C0E6F6FFDEC35F0010E00016D27EA
:10256800000E6E23000E6D25D96E050E6E21DA6EF3
:10257800DF500101C96F000EBB6F000EBA6FCEC1EC
:102588006DF0CFC16EF0000E0001706F0C0E6F6F12
:10259800FDEC35F0030E00016D27000E6E23000ED2
:1025A8006D25D96E050E6E21DA6EDF500101B06F10
:1025B800000EBD6F000EBC6FC905D8A442D0CEC1B5
:1025C8006DF0CFC16EF0000E0001706F0C0E6F6FD2
:1025D800FDEC35F0020E00016D27000E6E23000E93
:1025E8006D25D96E050E6E21DA6EDF50A46FA451E9
:1025F8000101BA6FBB6BCEC16DF0CFC16EF0000E9A
:102608000001706F0C0E6F6FFDEC35F0040E0001C9
:102618006D27000E6E23000E6D25D96E050E6E21F6
:10262800DA6EDF50A46FA451A66FA56BCEC16DF012
:10263800CFC16EF0000E706F0C0E6F6FFDEC35F0B1
:10264800A0D0020EC919D8A457D0CEC16DF0CFC101
:102658006EF0000E0001706F0C0E6F6FFDEC35F020
:10266800020E00016D27000E6E23000E6D25D96E37
:10267800050E6E21DA6EDF50A46FA451A66FA56B0C
:10268800CEC16DF0CFC16EF0000E706F0C0E6F6F83
:10269800FDEC35F0030E00016D27000E6E23000ED1
:1026A8006D25D96E050E6E21DA6EDF50A76FA75122
:1026B800A5110101BA6F0001A6510101BB6FCEC17E
:1026C8006DF0CFC16EF0000E0001706F0C0E6F6FD1
:1026D800FDEC35F0040E00016D27000E6E23000E90
:1026E8006D25D96E050E6E21DA6EDF50A46FA451E8
:1026F8000101BC6FBD6B5AD0030EC919D8A456D0BE
:10270800CEC16DF0CFC16EF0000E0001706F0C0EDF
:102718006F6FFDEC35F0020E00016D27000E6E2381
:10272800000E6D25D96E050E6E21DA6EDF50A46F8E
:10273800A4510101BA6FBB6BCEC16DF0CFC16EF071
:10274800000E0001706F0C0E6F6FFDEC35F0040E7B
:1027580000016D27000E6E23000E6D25D96E050E43
:102768006E21DA6EDF50A46FA451A66FA56BCEC19F
:102778006DF0CFC16EF0000E706F0C0E6F6FFDEC38
:1027880035F0050E00016D27000E6E23000E6D2535
:10279800D96E050E6E21DA6EDF50A76FA751A5110D
:1027A8000101BC6F0001A6510101BD6FCEC16DF0E2
:1027B800CFC16EF0000E0001706F0C0E6F6FFDEC54
:1027C80035F0090E00016D27000E6E23000E6D25F1
:1027D800D96E050E6E21DA6EDF500101B16FCEC1E0
:1027E8006DF0CFC16EF0000E0001706F0C0E6F6FB0
:1027F800FDEC35F00A0E00016D27000E6E23000E69
:102808006D25D96E050E6E21DA6EDF500101B26FAB
:10281800060EC019D8A407D0BE51BF11D8A403D042
:10282800B2C1CEF154D0BAC184F0BBC185F0B0C1F9
:1028380086F0BCC187F0BDC188F0C9519DEC1FF07E
:1028480084C0A6F185C0A7F10101A651A711D8A49B
:10285800BFD1B1C1CEF13BD0CEC16DF0CFC16EF0CA
:10286800000E0001706F0C0E6F6FFDEC35F00A0E54
:1028780000016D27000E6E23000E6D25D96E050E22
:102888006E21DA6EDF500101B36FBE51BF11D8A4BB
:102898009FD1B3C1CEF11BD0CEC16DF0CFC16EF0C8
:1028A800000E0001706F0C0E6F6FFDEC35F0090E15
:1028B80000016D27000E6E23000E6D25D96E050EE2
:1028C8006E21DA6EDF500101B46FB4C1CEF1CF6B67
:1028D800CAC1C3F1CBC1C4F182D1CEC16DF0CFC1A1
:1028E8006EF0000E0001706F0C0E6F6FFDEC35F08E
:1028F800010E00016D27000E6E23000E6D25D96EA6
:10290800050E6E21DA6EDF500101B56FCEC16DF094
:10291800CFC16EF0000E0001706F0C0E6F6FFDECF2
:1029280035F0020E00016D27000E6E23000E6D2596
:10293800D96E050E6E21DA6EDF500101C56FCEC16A
:102948006DF0CFC16EF0000E0001706F0C0E6F6F4E
:10295800FDEC35F0030E00016D27000E6E23000E0E
:102968006D25D96E050E6E21DA6EDF500101B66F46
:10297800CEC16DF0CFC16EF0000E0001706F0C0E6D
:102988006F6FFDEC35F0040E00016D27000E6E230D
:10299800000E6D25D96E050E6E21DA6EDF5001012D
:1029A800B76FCEC16DF0CFC16EF0000E0001706F31
:1029B8000C0E6F6FFDEC35F0050E00016D27000E53
:1029C8006E23000E6D25D96E050E6E21DA6EDF506E
:1029D8000101C66FCEC16DF0CFC16EF0000E0001CF
:1029E800706F0C0E6F6FFDEC35F0060E00016D2751
:1029F800000E6E23000E6D25D96E050E6E21DA6E5F
:102A0800DF500101B86FCEC16DF0CFC16EF0000E7E
:102A18000001706F0C0E6F6FFDEC35F0070E0001B2
:102A28006D27000E6E23000E6D25D96E050E6E21E2
:102A3800DA6EDF500101B96FFF0EB525CC6FCD6B93
:102A4800FF0ECD23CDBFC4D0CDBF06D0CD5103E1FD
:102A58001A0ECC5DD8B0BCD0B7C184F0B651B3EC77
:102A68002CF084C0A8F185C0A9F1000E0101C26F45
:102A7800000EC16FC651D8B409D0B9C184F0B8519D
:102A8800B3EC2CF084C0C1F185C0C2F1A8C1C7F174
:102A9800A9C1C8F10101C605D8A405D0C151C727ED
:102AA800C251C82308D0020EC619D8A404D0C151F7
:102AB800C75FC251C85BC505D8A425D0C7C1A4F05B
:102AC800C8C1A5F0000E0001A5BFFF0EA66FA76F35
:102AD800000EA86F020EA96FD8900101CC35D96EEF
:102AE800CD35DA6ED890D936DA360001A851D92614
:102AF800A951DA22A4C0DEFFA5C0DEFFA6C0DEFF12
:102B0800A7C0DEFF65D0020E0101C519D8A41ED0EA
:102B1800000E0001A46F020EA56FD8900101CC35FC
:102B2800D96ECD35DA6ED890D936DA360001A4518F
:102B3800D926A551DA220101C751DE26C851DE2265
:102B4800000EC8BFFF0EDE22DE2242D0030EC519DA
:102B5800D8A43ED0000E0001A46F020EA56FD89035
:102B68000101CC35D96ECD35DA6ED890D936DA3642
:102B78000001A451D926A551DA220101C751DE5E10
:102B8800C851DE5A000EC8BFFF0EDE5ADE5A20D0EA
:102B9800C051010AD8B492EF11F0030AD8B401D495
:102BA800010AD8B43FD4070AD8B4CCD4010AD8B49F
:102BB80053D6030AD8B4C6D4010AD8B409D00F0A28
:102BC800D8B406D0010AD8B467D6030AD8B485D6D3
:102BD800CAC1C3F1CBC1C4F10101CE4BCF2B000157
:102BE800D2510101CE5DCF51800A0001A46FD351AB
:102BF800800AA459D8B012005DEF11F00001745199
:102C08007511D8A404D076517711D8B40ED0745168
:102C1800CA190BE17551CB19D8A407D07651CC1934
:102C280004E17751CD19D8B41200000E6E6F000E72
:102C38006D6F000E706F000E6F6F24EC36F0849A83
:102C48008490839C839A0E01C997FA0EB46EB68E4F
:102C580007C080F008C081F0000175BF5ED07551D3
:102C680003E17405D8A059D0010E7C6F000E7E6F69
:102C780074C078F075C079F0D89078377937D890E3
:102C880078377937D8907837793778C084F079C031
:102C980085F007500810D8B4B1D0910E845D010EAC
:102CA8008559D8A00FD0700E84256D6FFE0E852132
:102CB8006E6F25C06FF026C070F020EC33F007501F
:102CC80000018DD0900E786F010E796F84C07AF074
:102CD80085C07BF07A1F7B1F7A4B7B2B78517A2734
:102CE80079517B2307507A5D08507B59D8B07CD046
:102CF80084C078F085C079F0781F791F784B792BDC
:102D0800900E78256D6F010E79216E6F25C06FF0DA
:102D180026C070F020EC33F05CD075AF74D0000E94
:102D28007C6F010E7E6F74C078F075C079F0D89012
:102D380078377937D89078377937D890783779379E
:102D4800781F791F784B792B78C084F079C085F08B
:102D580007500810D8B452D0910E845D010E8559E1
:102D6800D8A00DD0700E84256D6FFE0E85216E6F74
:102D780025C06FF026C070F020EC33F0A0D7900E7D
:102D8800786F010E796F84C07AF085C07BF07A1F66
:102D98007B1F7A4B7B2B78517A2779517B230750FD
:102DA8007A5D08507B59D8B01FD084C078F085C0B0
:102DB80079F0781F791F784B792B900E78256D6FF5
:102DC800010E79216E6F25C06FF026C070F020ECDF
:102DD80033F000016D1F6E1F6D4B6E2B07506D2574
:102DE800806F08506E21816F8451805D85518159B3
:102DF800D8B004D08051845F8151855B640E8427EC
:102E0800000E85230BD01950D8B408D0010E7C6F62
:102E1800010E7E6F000E856F000E846F05C082F074
:102E280006C083F077BF5ED0775103E17605D8A05E
:102E380059D0010E7D6F000E7F6F76C078F077C095
:102E480079F0D89078377937D89078377937D8901B
:102E58007837793778C086F079C087F00550061042
:102E6800D8B4B1D0910E865D010E8759D8A00FD085
:102E7800700E86256D6FFE0E87216E6F25C06FF070
:102E880026C070F020EC33F0055000018DD0900E74
:102E9800786F010E796F86C07AF087C07BF07A1F51
:102EA8007B1F7A4B7B2B78517A2779517B230550EE
:102EB8007A5D06507B59D8B07CD086C078F087C040
:102EC80079F0781F791F784B792B900E78256D6FE4
:102ED800010E79216E6F25C06FF026C070F020ECCE
:102EE80033F05CD077AF74D0000E7D6F010E7F6F2A
:102EF80076C078F077C079F0D89078377937D8905D
:102F080078377937D89078377937781F791F784BA1
:102F1800792B78C086F079C087F005500610D8B4B0
:102F280052D0910E865D010E8759D8A00DD0700E33
:102F380086256D6FFE0E87216E6F25C06FF026C047
:102F480070F020EC33F0A0D7900E786F010E796FF7
:102F580086C07AF087C07BF07A1F7B1F7A4B7B2B69
:102F680078517A2779517B2305507A5D06507B5931
:102F7800D8B01FD086C078F087C079F0781F791F45
:102F8800784B792B900E78256D6F010E79216E6F35
:102F980025C06FF026C070F020EC33F000016D1FE3
:102FA8006E1F6D4B6E2B05506D25826F06506E217E
:102FB800836F8651825D87518359D8B004D082517E
:102FC800865F8351875B640E8627000E87230BD0AC
:102FD8001950D8B408D0010E7D6F010E7F6F000E16
:102FE800876F000E866F010E196E74C0CAF075C027
:102FF800CBF076C0CCF077C0CDF00E01C9A7FDD7D5
:10300800C997B69E84C06DF085C06EF086C06FF01B
:1030180087C070F024EC36F000017CB102D0849AAD
:1030280001D0848A00017EB102D0849001D08480CE
:1030380000017DB102D0839C01D0838C00017FB157
:1030480002D0839A01D0838A120000018F6F000199
:103058008F51020DB60EF324D96E000EF420DA6EED
:10306800DECF7DF0DDCF7EF07DC08BF07EC08CF0B2
:103078008D6B8E6B910E8B27FF0E8C23FF0E8D238D
:10308800FF0E8E238BC06DF08CC06EF08DC06FF07C
:103098008EC070F0580E716F020E726F000E736F53
:1030A800000E746F9DEC32F06DC08BF06EC08CF02A
:1030B8006FC08DF070C08EF08BC06DF08CC06EF05C
:1030C8008DC06FF08EC070F0410E0001716F010E5F
:1030D800726F000E736F000E746F59EC29F06DC09B
:1030E8008BF06EC08CF06FC08DF070C08EF09C0EAF
:1030F80000018B27FF0E8C23FF0E8D23FF0E8E23DE
:103108008EAF0AD0380E8B5DFF0E8C59FF0E8D598D
:10311800FF0E8E59D8A00BD08EBF21D08E518D11A5
:1031280006E1BD0E8B5D020E8C59D8A018D08F51C8
:10313800020DD00EF324D96E010EF420DA6E190EAA
:10314800DE6EFC0EDD6E8F51020D6D0EF324D96E0E
:10315800010EF420DA6EDAC0DEFFDBC0DDFF8F512E
:10316800020D6D0EF324D96E010EF420DA6EDECF57
:103178007DF0DDCF7EF07D1F7E1F7D4B7E2BDA51EB
:103188007D27DB517E23E80E7D5D030E7E59D8B086
:103198000DD08F51020DD00EF324D96E010EF420FC
:1031A800DA6EDECF7BF0DDCF7CF012008F51020D9E
:1031B8006D0EF324D96E010EF420DA6EDAC0DEFF4C
:1031C800DBC0DDFF8F51020DD00EF324D96E010E46
:1031D800F420DA6E190EDE1810E1FC0EDE18D8A401
:1031E8000CD08F51020DD00EF324D96E010EF420AD
:1031F800DA6E8BC0DEFF8CC0DDFF8F51020DD00E62
:10320800F324D96E010EF420DA6EDECF7DF0DDCF27
:103218007EF0000E7EBFFF0E806F800A7F6F8B519D
:103228007D5D8C517E598D5180598E51800A7F5910
:10323800D8B049D08F51020DD00EF324D96E010EAB
:10324800F420DA6EDECF7DF0DDCF7EF07DC07FF03A
:103258007EC080F0000E80BFFF0E816F826F7F1FDF
:10326800801F811F821F7F2B000E802381238223D2
:103278008B517F25836F8C518021846F8D518121E3
:10328800856F8E518221866F86BF76D086518511D3
:10329800841104E1020E835DD8A06ED08F51020D17
:1032A800D00EF324D96E010EF420DA6EDECF7DF055
:1032B800DDCF7EF0020E7D27000E7E237DC08BF0D1
:1032C8007EC08CF054D08BC07DF08CC07EF08DC059
:1032D8007FF08EC080F07D1F7E1F7F1F801F7D2B9B
:1032E800000E7E237F2380238F51020DD00EF324FE
:1032F800D96E010EF420DA6EDECF81F0DDCF82F0D8
:1033080081C083F082C084F0000E84BFFF0E856FF9
:10331800866F7D518325876F7E518421886F7F5109
:103328008521896F805186218A6F8ABF25D08A516D
:103338008911881104E1020E875DD8A01DD0FE0E08
:103348007D6FFF0E7E6F8F51020DD00EF324D96E64
:10335800010EF420DA6EDECF7FF0DDCF80F07D51F4
:103368007F277E5180237FC08BF080C08CF0000EB9
:103378008CBFFF0E8D6F8E6F8F51020DD00EF32410
:10338800D96E010EF420DA6E8B51DE268C51DD22C7
:103398008F51020DD00EF324D96E010EF420DA6E8F
:1033A800DECF6DF0DDCF6EF0000E706F020E6F6F26
:1033B80016EC30F000018F51020DD00EF324D96EB7
:1033C800010EF420DA6E6DC0DEFF6EC0DDFF8F5196
:1033D800020DD00EF324D96E010EF420DA6EDECF82
:1033E8007BF0DDCF7CF012007D0E00018E6F000EA9
:1033F8008F6F9CD1250E9519D8B409D079C0D9FF03
:103408007AC0DAFF95C0DFFF794B7A2B8FD1000E97
:10341800946F000E936F000E926F04D00001928596
:103428007B4B7C2B7BC0F6FF7CC0F7FF0800F55078
:10343800300AD8B4F3D77BC0F6FF7CC0F7FF08008A
:10344800F55048EC36F0D8A084D0000E0001946FF7
:10345800000E936F93C06DF094C06EF0000E0001E3
:10346800706F0A0E6F6FFDEC35F06DC093F06EC093
:1034780094F0D00E0001856FFF0E866F7BC0F6FFBB
:103488007CC0F7FF0800F550876F886B8551872748
:103498008651882387519327885194237B4B7C2B13
:1034A8007BC0F6FF7CC0F7FF0800F55048EC36F00B
:1034B800D8A04FD0CFD7000193518C5D94518D592E
:1034C800D8B005D08C51935F8D51945B0DD0000E10
:1034D800946F000E936F08D079C0D9FF7AC0DAFFD5
:1034E800200EDF6E794B7A2B9307D8A09407932987
:1034F800F3E19429D8B40FD0EFD789C0D9FF8AC097
:10350800DAFF79C0E1FF7AC0E2FFDFCFE7FF894B3E
:103518008A2B794B7A2B8C07D8A08D078C29EDE163
:103528008D29D8B403D1E9D78EC0D9FF8FC0DAFF6F
:10353800DF50956F020E8E27000E8F23950E896F30
:10354800000E8A6F000E8D6F010E8C6FB4D7928DAE
:103558001BD07BC0F6FF7CC0F7FF00017B4B7C2BA8
:103568000800F5CF95F09551000AD8B4EBD0630A5E
:10357800D8B4DAD7070AD8B407D00D0AD8B404D01B
:103588001C0AD8B4E4D7DAD7000192BD15D08EC092
:10359800D9FF8FC0DAFFDECF90F0DDCF91F0020EB9
:1035A8008E27000E8F2391AF13D0030E9213906DC8
:1035B800911FD8B0912B0CD08EC0D9FF8FC0DAFFE5
:1035C800DECF90F0DDCF91F0020E8E27000E8F2314
:1035D800010E956F050E9519D8B412D09551020DAC
:1035E8008B0EF324F66E210EF420F76E0900F550C9
:1035F800905D0900F5509159D8A002D0952BEAD7D3
:1036080093519411D8B409D092C085F0030E851750
:10361800D8B403D09307D8A094079551856F866BCB
:103628009351855D8651800A876F9451800A875926
:10363800D8B005D09551935F000E945B04D0000E6E
:10364800946F000E936F92A51ED092C085F0030E62
:103658008517D8B408D079C0D9FF7AC0DAFF2D0E03
:10366800DF6E794B7A2B93519411D8B42DD079C051
:10367800D9FF7AC0DAFF300EDF6E794B7A2B9307C9
:10368800D8A09407F0D793519411D8B40FD079C02B
:10369800D9FF7AC0DAFF200EDF6E794B7A2B9307B9
:1036A800D8A0940793519411D8A4F1D792C085F06B
:1036B800030E8517D8B408D079C0D9FF7AC0DAFFCD
:1036C8002D0EDF6E794B7A2B95C08BF02BD08B515A
:1036D800020D8B0EF324F66E210EF420F76E09000E
:1036E800F5CF6FF00A00F5CF70F090C06DF091C083
:1036F8006EF020EC33F06DC074F06EC075F0000E03
:103708000001776F0A0E766F74EC34F00001745183
:10371800300F956F79C0D9FF7AC0DAFF95C0DFFF07
:10372800794B7A2B8B078B29D8A4D1D77BC0F6FF8E
:103738007CC0F7FF7B4B7C2B0800F5CF95F09551AB
:10374800D8A458D679C0D9FF7AC0DAFF000EDF6E48
:1037580012007BD1000E0001E56F54D0000E00016D
:10376800B65D020EB759D8A002D0010E01D0000EE6
:103778006D6F000E9AEC33F0000E0001B85D020E7A
:10378800B959D8A002D0010E01D0000E6D6F010EFC
:103798009AEC33F0000E0001BA5D020EBB59D8A0B6
:1037A80002D0010E01D0000E6D6F020E9AEC33F0BC
:1037B800000E0001BC5D020EBD59D8A002D0010E5A
:1037C80001D0000E6D6F030E9AEC33F0000E00016D
:1037D800BE5D020EBF59D8A002D0010E01D0000E66
:1037E8006D6F020E9AEC33F0000E0001BE5D020E02
:1037F800BF59D8A002D0010E01D0000E6D6F030E84
:103808009AEC33F01C50D8B4A9D7000E00016D6FA4
:10381800000E9AEC33F0000E00016D6F010E9AEC69
:1038280033F0000E00016D6F020E9AEC33F0000EBB
:1038380000016D6F030E9AEC33F0010E00016D6FFD
:10384800000E9AEC33F0000E0001756F320E746FA3
:10385800000E776F320E766F02EC16F0030E000141
:103868006E6FE80E6D6FE9EC35F0000E00016D6FBC
:10387800000E9AEC33F0000E0001756F000E746FA5
:10388800000E776F000E766F02EC16F0000E000146
:103898006E6FC80E6D6FE9EC35F0010E00016D6FAB
:1038A800010E9AEC33F0FF0E0001756FCE0E746FA7
:1038B800FF0E776FCE0E766F02EC16F0030E000146
:1038C8006E6FE80E6D6FE9EC35F0000E00016D6F5C
:1038D800010E9AEC33F0000E0001756F000E746F44
:1038E800000E776F000E766F02EC16F0000E0001E6
:1038F8006E6FC80E6D6FE9EC35F0010E00016D6F4B
:10390800020E9AEC33F0FF0E0001756FCE0E746F45
:10391800000E776F320E766F02EC16F0030E000180
:103928006E6FE80E6D6FE9EC35F0000E00016D6FFB
:10393800020E9AEC33F0000E0001756F000E746FE2
:10394800000E776F000E766F02EC16F0000E000185
:103958006E6FC80E6D6FE9EC35F0010E00016D6FEA
:10396800030E9AEC33F0000E0001756F320E746F7F
:10397800FF0E776FCE0E766F02EC16F0030E000185
:103988006E6FE80E6D6FE9EC35F0000E00016D6F9B
:10399800030E9AEC33F0000E0001756F000E746F81
:1039A800000E776F000E766F02EC16F0000E000125
:1039B8006E6FC80E6D6FE9EC35F0000E0001756F83
:1039C800000E746F000E776F320E766F02EC16F0F1
:1039D800030E00016E6FE80E6D6FE9EC35F0000E16
:1039E8000001756F000E746F000E776F000E766F12
:1039F80002EC16F0000E00016E6FC80E6D6FE9EC58
:103A080035F0000E0001756F320E746F000E776F7F
:103A1800000E766F02EC16F0030E00016E6FE80ED2
:103A28006D6FE9EC35F0000E0001756F000E746FD4
:103A3800000E776F000E766F02EC16F0000E000194
:103A48006E6FC80E6D6FE9EC35F0050E0001E119D7
:103A5800D8A412007FD6000E0001AE6F000EAF6F23
:103A680027D1AF2BAF05AA6FAA51010D680EF32419
:103A7800D96E020EF420DA6E230EDE18D8A418D1FF
:103A8800EFD0AF51010D680EF324966F020EF420AB
:103A9800976FF0EC28F00CD10001AF51010D680EC2
:103AA800F324986F020EF420996F5DEC26F0910EC6
:103AB8000001796F010E7A6F9E0E7B6F220E7C6F6C
:103AC800F8EC19F0C9D0AF51010D680EF324986FC6
:103AD800020EF420996F82EC2AF0BED0AF51010D8E
:103AE800680EF324966F020EF420976FBDEC2DF04C
:103AF800DFD00001AF51010D680EAA6F020EAB6F47
:103B0800F350AA27F450AB23AF51010D680EF324EC
:103B18007C6F020EF4207D6F7E0E7E6F220E7F6F0B
:103B28008EEC2FF00001AA517C1914E1AB517D19DC
:103B3800D8A410D0AF51AA6FAB6B040EAA27000E01
:103B4800AB23680EAA25A26F020EAB21A36F9CECD3
:103B580024F0AED00CEC34F0ABD0060E0001E16FCF
:103B680035EC25F0A5D00001AF51010D680EF32406
:103B78007C6F020EF4207D6FA20E7E6F220E7F6F87
:103B88008EEC2FF000017C517D11D8B491D0030E3A
:103B9800AF27AF51010D680EF324736F020EF420A6
:103BA800746F040E756F59EC30F073C0ACF074C0CC
:103BB800ADF0050E0001AF271ED0AF51010D680E04
:103BC800F324D96E020EF420DA6E3F0EDE18D8A464
:103BD8006FD052EC34F0910E0001796F010E7A6FBC
:103BE8003C0E7B6F220E7C6FACC07DF0ADC07EF0CA
:103BF800F8EC19F05DD0ACC0AAF0ADC0ABF0000194
:103C0800AB51040AD8B407D0010AD8B407D0030AC4
:103C1800D8B407D04DD0AA51B20A4AD0AA51790ACD
:103C280047D0AA51430AD8B4C8D70B0A41D0AF51DC
:103C3800010D680EF3247C6F020EF4207D6F630E75
:103C48007E6F220E7F6F8EEC2FF000017C517D116C
:103C5800D8B42ED0F5EC32F0010E0001AE6F28D0AA
:103C6800AF51010D680EF324D96E020EF420DA6EFE
:103C7800DF50420AD8B471D7010AD8B40DD7070A61
:103C8800D8B471D7080AD8B41ED7010AD8B431D726
:103C98001D0AD8B40DD0020AD8B420D7010AD8B466
:103CA800F0D6070AD8B4C3D7010AD8B4C0D7260AB1
:103CB8000001AF51010D680EF324D96E020EF420F5
:103CC800DA6EDF50D8A4CDD6AE51D8B41200B70EF4
:103CD8006E6F210E6F6FC9EC32F012009CA403D0F6
:103CE80098CF14F012009CA203D09C989C881200D4
:103CF80098CF14F00001E105D8A4DFD009D1520E05
:103D08001418D8A402D0010E136E560E1418D8A495
:103D180002D0050E136E4D0E1418D8A4F9D0090E52
:103D28007CD0650E1418D8B404D0000E286E000E8E
:103D380003D0000E286E020E276E27C013F0E8D0BD
:103D4800730E1418D8B404D0000E2A6E000E03D0D7
:103D5800000E2A6E030E296E29C013F0D9D0650E05
:103D68001418D8B404D0000E2C6E000E03D0000E28
:103D78002C6E040E2B6E2BC013F0CAD0740E1418C0
:103D8800D8B404D0000E2E6E000E03D0000E2E6E96
:103D9800070E2D6E2DC013F0BBD0650E1418D8B4C5
:103DA80004D0000E306E000E03D0000E306E060EEA
:103DB8002F6E2FC013F0ACD0720E1418D8B404D0E4
:103DC800000E326E000E03D0000E326E070E316EFA
:103DD80031C013F09DD00D0E1418D8B408D03A0E87
:103DE8001418D8B404D0000E346E000E03D0000EA0
:103DF800346E080E336E33C013F08AD00A0E1418CE
:103E0800D8B408D0020EE119D8B404D0030EE119D1
:103E1800D8A402D0FF007CD0000E136E79D06F0EAC
:103E28001418D8B404D0000E366E000E03D0000E5D
:103E3800366E0A0E356E35C013F06AD0640E14184B
:103E4800D8B404D0000E386E000E03D0000E386EC1
:103E58000B0E376E37C013F05BD0650E1418D8B44C
:103E680004D0000E3A6E000E03D0000E3A6E0C0E0F
:103E7800396E39C013F04CD03A0E1418D8B404D0A7
:103E8800000E3C6E000E03D0000E3C6E0D0E3B6E15
:103E98003BC013F03DD0000E136E300E146438D0C2
:103EA800020E0001E119D8B433D0030EE119D8B4D9
:103EB8002FD01450D00FE16F2BD01350000AD8B474
:103EC8001ED7010AD8B42DD7030AD8B439D7010AA6
:103ED800D8B445D7070AD8B451D7010AD8B45DD7A2
:103EE800030AD8B469D7010AD8B475D70F0AD8B469
:103EF80085D7010AD8B493D7030AD8B49FD7010A43
:103F0800D8B4ABD7070AD8B4B7D7010AD8B4C3D73F
:103F18001650010D000EF324D96E040EF420DA6E4B
:103F280014C0DFFF162A1628D8A41200000E166E39
:103F380012000001996F00019905D8A43ED084C0F1
:103F480096F087C09AF088C09BF09651020DB60E85
:103F5800F324D96E000EF420DA6EDECF9CF0DDCFAC
:103F68009DF08605D8A40CD09C519A5D9D519B5913
:103F7800D8B002D0010E01D0000E846F856B1200FC
:103F8800020E8619D8A40CD09A519C5D9B519D595C
:103F9800D8B002D0010E01D0000E846F856B1200DC
:103FA800030E8619D8A4C4D09A519C1904E19B51D8
:103FB8009D19D8B431D0000E30D0020E9919D8A46A
:103FC8002FD084C08EF085C08FF087C097F091EC19
:103FD80036F082C090F083C091F08EC089F08FC017
:103FE8008AF00001891F8A1F894B8A2B90518925E5
:103FF8006D6F91518A216E6FBFEC35F000019751BA
:104008008B6F8C6B6D518B5D8C51800A8D6F6E51EF
:10401800800A8D59D8A0CFD7010E846F856B120006
:10402800030E9919D8A484D084C098F0FF0E98255F
:104038009E6F9F6BFF0E9F239FBF08D09FBF0FD01F
:104048009F5104E11A0E9E5DD8A009D0000E926F10
:10405800000E936F000E946F000E956F18D0000E2F
:10406800896F020E8A6FD8909E35D96E9F35DA6EA9
:10407800D890D936DA368951D9268A51DA22DECF54
:1040880092F0DECF93F0DECF94F0DECF95F092C0C1
:10409800A0F093C0A1F087C0A2F088C0A3F0860565
:1040A800D8A40DD0A251A01906E1A351A119D8A4F2
:1040B80002D0010E01D0000E846F856B1200020E33
:1040C8008619D8A40DD0A251A01904E1A351A119B1
:1040D800D8B402D0010E01D0000E846F856B120097
:1040E800030E8619D8A410D0A051A25DA351800A4E
:1040F800896FA151800A8959D8B002D0010E01D028
:10410800000E846F856B1200040E8619D8A410D097
:10411800A251A05DA151800A896FA351800A8959D3
:10412800D8B002D0010E01D0000E846F856B12004A
:10413800000E856F000E846F1200600E0E01D36FA3
:10414800000ED56F000ED76F060ED96F000ED86F10
:10415800000EDC6F000EDD6F000EDE6F000EDF6FED
:10416800000EE06F000EE16F000E0001E16F000E1F
:10417800E26F000ED96F000ED86F000E1C6E000E95
:10418800DF6F000EDE6F000E0101916F000E00015F
:10419800E46F000EE36F010EE56F000EE06F000E96
:1041A800CB6F000ECA6F000ECD6F000ECC6F000EE5
:1041B8001B6E000E7E6F190E7E6501D00ED07E51EB
:1041C800040D000EF324D96E020EF420DA6EDE6AB6
:1041D800DE6ADE6ADD6A7E2BEED7000E7E6F030E86
:1041E8007E6501D00ED07E51040D810EF324D96E68
:1041F800010EF420DA6EDE6ADE6ADE6ADD6A7E2B84
:10420800EED7000E7E6F090E7E6501D00CD07E5170
:10421800030D4F0EF324D96E010EF420DA6E010E51
:10422800DF6E7E2BF0D7000E826E3F0E876E000E7B
:104238000F010C6F000E836E1F0E886E000E146F38
:10424800730EF66E210EF76E0800F550FF0A8816F9
:10425800000E0101676F000E696F000E686F68C17C
:104268007CF0080EA0EC2BF06B0EF66E210EF76EAC
:104278000800F550FF0A8816000E01016A6F000E4B
:104288006C6F000E6B6F6BC17CF0090EA0EC2BF00D
:10429800180E846E800E896E000E0F011C6F000EC2
:1042A8000B6F000E136F000E1B6F000E286F000EB1
:1042B8000A6F000E126F000E1A6F09691169000E5D
:1042C800196F086910691869080E256F170E0E0115
:1042D800B06F090EF86F060EF36F050EF46F0F0E30
:1042E800F56F100EF66F130EB26F140EB36FF28ED9
:1042F800F28CF28A7DEC35F0CFEC31F059EC36F0E7
:1043080065EC2DF073EC33F0D8EC34F0828E1200AB
:1043180000017E6F500E00017D6F0D50D8B476EC11
:1043280028F0000E0001816F8151010D000EF32469
:10433800D96E010EF420DA6E1A0EDF6E812B81C061
:1043480071F07D516CEC32F00009D8A40ED0000158
:104358007E51020D1D0EF324D96E000EF420DA6E84
:10436800DECF76F0DDCF77F01200060E0001716F18
:104378007D514AEC33F00009D8A40ED000017E51DB
:10438800020D1D0EF324D96E000EF420DA6EDECF76
:1043980076F0DDCF77F01200000E0001816F8151B9
:1043A800010D000EF324D96E010EF420DA6EDF50F1
:1043B8007F6F812B8151010D000EF324D96E010E00
:1043C800F420DA6EDF50806F812B7FC078F080C0D8
:1043D80079F0040E7A6FD890793378337A2FFBD737
:1043E80078C01DF079C01EF08151010D000EF32434
:1043F800D96E010EF420DA6EDF507F6F812B815168
:10440800010D000EF324D96E010EF420DA6EDF5090
:10441800806F812BA00E7F27050E80237FC078F048
:1044280080C079F0040E7A6FD890793378337A2F78
:10443800FBD778C021F079C022F08151010D000E20
:10444800F324D96E010EF420DA6EDF507F6F812BD2
:104458008151010D000EF324D96E010EF420DA6E9D
:10446800DF50806F812B400E7F270B0E80237FC08B
:1044780078F080C079F0040E7A6FD8907933783369
:104488007A2FFBD778C01FF079C020F0020E7E6526
:1044980004D01D0E7B6F000E07D07E51020D1D0E3D
:1044A800F3247B6F000EF4207C6F7BC0D9FF7CC0A7
:1044B800DAFFDECF76F0DDCF77F012000001DA4BBD
:1044C800DB2B010E01018127000E82238323842325
:1044D800010E8527000E862387238823010E89274E
:1044E800000E8A238B238C23010E8D27000E8E232A
:1044F8008F2390230001D64BD72B03500410D8B438
:1045080003D00306D8A0040609500A10D8B403D073
:104518000906D8A00A06DC51DD11D8B403D0DC079F
:10452800D8A0DD07320E176088D0172A86D08CB83D
:1045380006D0000ED96F000ED86FE22B1200020EC3
:10454800E119D8B41200030EE119D8B41200D84BFF
:10455800D92BF40ED85D010ED959D8A01200000E3F
:10456800D96F000ED86FE551D8B41200E051D4ECE1
:1045780035F012008CA802D0E2071200D84BD92BD4
:10458800D95104E1640ED85DD8A01200000ED96F8D
:10459800000ED86F010E1C6EE22B12008CA820D0E2
:1045A80028D0D84BD92BD00ED85D070ED959D8A012
:1045B8001200040EE16F000ED96F000ED86F1200C2
:1045C800D84BD92BD95104E1640ED85DD8A012007C
:1045D800000ED96F000ED86FE051D4EC35F0120000
:1045E8000001E151000AD8B4DCD7040AD8A41200AB
:1045F800E7D7000E1C6E08D0020E04D0FF0017D0BB
:10460800050E0001E16F13D0E151000AD8B40FD0B4
:10461800010AD8B4F1D7030AD8B4F0D7010AD8B43C
:10462800EDD7070AD8B4ECD7010AD8A4030A0001C9
:10463800E22B1200010EE26F1200E251000AD8B418
:104648001200010AD8B473D7030AD8B493D7010A61
:10465800D8B4A4D7EFD7ACD099EC36F00009D8A4D9
:1046680059EC2CF01C50D8B4A6D0000E0001E56F10
:10467800000E6D6F000E9AEC33F0000E0001756F9E
:10468800000E746F000E776F000E766F02EC16F056
:10469800010E00016E6FF40E6D6FE9EC35F0010E3E
:1046A80000016D6F010E9AEC33F0000E0001756F7A
:1046B800320E746F000E776F320E766F02EC16F0C2
:1046C800070E00016E6FD00E6D6FE9EC35F0010E2C
:1046D80000016D6F020E9AEC33F0000E0001756F49
:1046E800640E746F000E776F640E766F02EC16F02E
:1046F800030E00016E6FE80E6D6FE9EC35F0010EE8
:1047080000016D6F030E9AEC33F0000E0001756F17
:10471800000E746F000E776F000E766F02EC16F0C5
:10472800010E00016E6FF40E6D6FE9EC35F0000EAE
:1047380000016D6F030E9AEC33F0FF0E0001756FE8
:10474800CE0E746FFF0E776FCE0E766F02EC16F0FA
:10475800070E00016E6FD00E6D6FE9EC35F0000E9C
:1047680000016D6F020E9AEC33F0FF0E0001756FB9
:104778009C0E746FFF0E776F9C0E766F02EC16F02E
:10478800030E00016E6FE80E6D6FE9EC35F0000E58
:1047980000016D6F010E9AEC33F0000E0001756F89
:1047A800000E746F000E776F000E766F02EC16F035
:1047B800010E0001E56F060E0001E119D8B44CD7CF
:1047C800000E756F000E746F000E776F000E766F17
:1047D80002EC16F012000001796F00017951D8B48B
:1047E80004D0795179252E0F01D0000E7B6F000E71
:1047F8007E6F090E746504D0000E786F160E03D014
:10480800000E786F020E776F77C07AF07E51010D37
:10481800000EF324D96E010EF420DA6E020EDF6E5C
:104828007E2B7E51010D000EF324D96E010EF4206B
:10483800DA6E810EDF6E7E2B7E51010D000EF324A1
:10484800D96E010EF420DA6E74C0DFFF7E2B7EC0B5
:1048580071F07B516CEC32F00009D8B412000B0EE9
:104868000001756F620EE82EFED7752FFCD700F099
:104878007AC071F000017B514AEC33F00009D8B4DA
:104888001200020E00017A19D8A415D000C17CF0DC
:1048980001C17DF07451030D010EF326000EF422C0
:1048A800310EF324D96E010EF420DA6E7CC0DEFFDF
:1048B8007DC0DDFF1200000E7E6F090E7E6501D0FF
:1048C8002ED07E51020D000EF324D96E010EF42075
:1048D800DA6EDF507C6F7E51756F766BD8907537C6
:1048E8007637010E7527000E7623000E7525D96ED2
:1048F800010E7621DA6EDF507D6F7E51030D010EB9
:10490800F326000EF422310EF324D96E010EF420A2
:10491800DA6E7CC0DEFF7DC0DDFF7E2BCED714C1F2
:10492800CEF015C1CFF04DC1D0F04AC1D1F0120080
:10493800A2C0D9FFA3C0DAFF3F0EDE18D8A419D051
:104948000001E451D8A409D0CAC0A6F0CBC0A7F092
:10495800CCC0A8F0CDC0A9F079D0A60E746F000E17
:10496800756FA80E766F000E776FE4510CEC2DF082
:104978006DD0A2C0D9FFA3C0DAFFDF500001A56F38
:10498800A24BA32BA2C073F0A3C074F0030E756FE3
:1049980059EC30F073C0A6F074C0A7F0520E0001B5
:1049A800A519D8A40DD0A6C06DF0A7C06EF0FF0E53
:1049B800706F6F69FDEC35F06DC0A6F06EC0A7F0A2
:1049C800040E0001A227000EA323A2C0D9FFA3C092
:1049D800DAFFDF50A56FA24BA32BA2C073F0A3C0D0
:1049E80074F0030E756F59EC30F073C0A8F074C002
:1049F800A9F0520E0001A519D8A40DD0A8C06DF0D9
:104A0800A9C06EF0FF0E706F6F69FDEC35F06DC0D8
:104A1800A8F06EC0A9F00001E451D8A40BD0A6C03C
:104A280074F0A7C075F0A8C076F0A9C077F002ECC2
:104A380016F00CD0A6C074F0A7C075F0A8C076F028
:104A4800A9C077F00001E4519AEC30F0A6C096F0C6
:104A5800A7C097F0A8C098F0A9C099F0C0EC29F0B9
:104A68001200680E00017C6F020E7D6F740E7E6F5F
:104A7800220E7F6F8EEC2FF07CC096F07DC097F0F1
:104A8800000196519711D8B41200040E9627000E13
:104A9800972396C0D9FF97C0DAFFDF5069EC36F04C
:104AA8000009D8B471D096C073F097C074F0030EA3
:104AB8000001756F59EC30F073C007F074C008F04E
:104AC800085004E1F10E075CD8A004D0000E086E6F
:104AD800F00E076E040E00019627000E972396C06D
:104AE800D9FF97C0DAFFDF5069EC36F00009D8B477
:104AF8004BD096C073F097C074F0030E0001756F29
:104B080059EC30F073C005F074C006F0065004E1AB
:104B1800F10E055CD8A004D0000E066EF00E056EEE
:104B2800040E00019627000E972396C0D9FF97C060
:104B3800DAFFDF5069EC36F00009D8B425D096C00A
:104B480073F097C074F0030E0001756F59EC30F0E4
:104B580073C025F074C026F025282610D8A404D0E8
:104B6800000E266E0A0E256E25502610D8B406D0E3
:104B7800265004E1150E255CD8A004D0000E266E40
:104B8800140E256EB2EC2EF0B7EC34F01200000EC5
:104B980000019C6F000E9B6F9B51986F9C51996F01
:104BA8009B4B9C2B910E9825D96E010E9921DA6E9C
:104BB800230EDE18D8A412006ED0000E9E6F000ED1
:104BC8009D6F9E510BE10A0E9D5DD8B007D09D5197
:104BD800FBEC27F000019D4B9E2BF3D7E551D8A4A1
:104BE80003D0E451D8B411D0000E9E6F000E9D6F13
:104BF8009E510BE1040E9D5DD8B007D09D5139EC54
:104C080032F000019D4B9E2BF3D7B70E6E6F210E2D
:104C18006F6FC9EC32F0000E0301006F1200030E33
:104C280000019B27000E9C23910E9B25736F010E9C
:104C38009C21746F040E756F59EC30F073C09DF0B1
:104C480074C09EF003D052EC34F012009DC098F06E
:104C58009EC099F000019951040AD8B407D0010AFE
:104C6800D8B40DD0030AD8A412000FD09851530A13
:104C7800D8B41200070AD8B41200E60A12009851F4
:104C8800160AD8B412006F0A12009851430AD8B411
:104C9800DAD70B0A1200910E9B25D96E010E9C21C2
:104CA800DA6EDF50430AD8B488D7070AD8A41200AE
:104CB800B6D798C07CF099C07DF09F0E00017E6F3A
:104CC800220E7F6F8EEC2FF0000198517C1905E1C0
:104CD80099517D19D8A4120001D01200020E98270C
:104CE800000E992398C073F099C074F0020E756F86
:104CF80059EC30F0000173519B6F9B51D8B41200EE
:104D08000A0E9B6501D012009B07030E9827000E20
:104D1800992398C0D9FF99C0DAFFDF5069EC36F0C3
:104D28000009D8B450D0020E00019827000E99232C
:104D3800E451D8B410D020D098C073F099C074F062
:104D4800040E756F59EC30F0000173517C6F9B5164
:104D5800A0EC2BF038D000019B51030D4F0EF3242B
:104D6800D96E010EF420DA6EDF50000AD8B4E4D709
:104D7800020AD8B4E1D727D09B51030D310EF32492
:104D8800D96E010EF420DA6EDF50D8B40CD09B51E6
:104D9800030D310EF324D96E010EF420DA6E020EE3
:104DA800DE18D8A410D09BC07CF098C073F099C0CE
:104DB80074F0040E756F59EC30F0000173517D6F7B
:104DC800E4511AEC31F000019B51FBEC27F0120082
:104DD800A1EC20F005EC32F0010E0001E26F8CA886
:104DE800FED70001E151D8A402D0010EE16F76ECA4
:104DF80028F099EC36F00009D8B45AD059EC2CF0C8
:104E080057D00001DE51DF11D8B4F3D7DC51DD11E2
:104E1800D8A4EFD7DEC0DCF0DFC0DDF0CBEC25F0A6
:104E2800E8D79F0E00016E6F210E6F6FC9EC32F04C
:104E3800000E00017A6F000E796F5AEC31F0000E07
:104E48000101816F000E826F000E836F000E846F68
:104E5800000E856F000E866F000E876F000E886F3C
:104E6800000E896F000E8A6F000E8B6F000E8C6F1C
:104E7800000E8D6F000E8E6F000E8F6F000E906FFC
:104E8800ACEC36F0000E00017A6F000E796F5AEC28
:104E980031F0010E00010AD0ADEC1BF0AAD72FECBF
:104EA80023F0A7D7010E0001E16F010EE16FA1D732
:104EB8000001E151010AD8B4A4D7030AD8B4B1D784
:104EC800010AD8B4AED7070AD8B493D7010AD8B420
:104ED800E3D7030AD8B4E3D7010AD8B4E3D7E5D7B0
:104EE8000001926F090E000192655FD01200925185
:104EF800020DB60EF324D96E000EF420DA6E92512C
:104F0800030D010EF326000EF4224F0EF324E16E7A
:104F1800010EF420E26EDECFE6FFDDCFE5FF1200E2
:104F2800925129EC18F000019251030D010EF3265D
:104F3800000EF4224F0EF324D96E010EF420DA6E1F
:104F48007BC0DEFF7CC0DDFF1200925113EC2EF017
:104F58000001906F916B9251030D010EF326000E24
:104F6800F4224F0EF324D96E010EF420DA6E90C0AD
:104F7800DEFF91C0DDFF12009251020DB60EF32440
:104F8800D96E000EF420DA6E9251030D010EF3264D
:104F9800000EF4224F0EF324E16E010EF420E26EAF
:104FA800DECFE6FFDDCFE5FF12009251030D4F0E75
:104FB800F324D96E010EF420DA6EDF50000AD8B45B
:104FC800C4D7010AD8B493D7030AD8B4BED7010A04
:104FD800D8B48DD7070AD8B41200020AD8B4A0D71B
:104FE8000E0AD8B41200010AD8B41200C5D70001BD
:104FF800976F0001E451D8A439D0975174EC27F089
:10500800000E0001796F030E7A6FFF0E7B6F210E81
:105018007C6F010E97257D6F7E6B000E7E23975166
:10502800030D4F0EF324D96E010EF420DA6EDF5013
:10503800966F96517F6F806B9751030D010EF32683
:10504800000EF4224F0EF324D96E010EF420DA6E0E
:10505800DECF81F0DDCF82F0F8EC19F0000E000110
:105068006E6F030E6F6FC9EC32F0120097C074F0C8
:105078000001E451EFEC23F0000E0001796F030EFC
:105088007A6FFF0E7B6F210E7C6F010E97257D6F67
:105098007E6B000E7E239751030D310EF324D96EDB
:1050A800010EF420DA6EDF50966F96517F6F806B99
:1050B8009751030D010EF326000EF422310EF3244E
:1050C800D96E010EF420DA6EDECF81F0DDCF82F0EA
:1050D800F8EC19F0000E00016E6F030E6F6FC9EC4B
:1050E80032F01200500E0001746F000E756F020E40
:1050F8006E6F8A0E6D6FE9EC35F000017551010D88
:10510800000EF324D96E010EF420DA6E3B0EDF6E2A
:10511800752B7551010D000EF324D96E010EF42084
:10512800DA6E000EDF6E752B75C071F074516CEC81
:1051380032F00009D8B41200000E0001756F7551E5
:10514800010D000EF324D96E010EF420DA6E410E23
:10515800DF6E752B7551010D000EF324D96E010E0B
:10516800F420DA6E210EDF6E752B7551010D000EDD
:10517800F324D96E010EF420DA6E040EDF6E752B5F
:1051880075C071F074516CEC32F00009D8B412009B
:10519800000E0001756F7551010D000EF324D96ED4
:1051A800010EF420DA6E3D0EDF6E752B7551010D80
:1051B800000EF324D96E010EF420DA6E0C0EDF6EA9
:1051C800752B75C071F074516CEC32F00009D8B4CD
:1051D8001200010E0D6E120096C07CF097C07DF093
:1051E8006F0E00017E6F220E7F6F8EEC2FF0000194
:1051F80096517C1959E197517D19D8A41200040ED3
:105208009627000E972396C073F097C074F0010E8E
:10521800756F59EC30F000017351E46F080EE465C6
:1052280002D0000EE46FE451D8B429D0E451E2EC86
:105238002AF00009D8B423D0550E00016E6F220E53
:105248006F6FC9EC32F0000E0001986F090E986577
:1052580001D00FD09851030D310EF324D96E010EF1
:10526800F420DA6EDF50300FA1EC36F00001982BF5
:10527800EDD7B70E6E6F210E6F6FC9EC32F0000ECE
:105288000001796F030E7A6F1C0E7B6F220E7C6F04
:10529800E4C07DF07E6BF8EC19F0000E00016E6F33
:1052A800030E6F6FC9EC32F01200000E0001766F2A
:1052B80074AF0AD0741F731F721F716D000E7223B2
:1052C80073237423010E766F70AF0AD0701F6F1F9F
:1052D8006E1F6D6D000E6E236F237023010E761BFB
:1052E800000E776F000E786F000E796F000E7A6FE0
:1052F8007151721173117411D8B42AD0010E756FDF
:1053080006D0D8907137723773377437752B74AFEE
:10531800F8D7D8907737783779377A3771516D5D04
:1053280072516E5973516F5974517059D8A009D080
:1053380071516D5F72516E5B73516F5B7451705B2D
:105348007781D8907433733372337133752FE1D703
:105358007651D8B408D07A1F791F781F776D000E60
:10536800782379237A2377C06DF078C06EF079C0FE
:105378006FF07AC070F01200000197BF07D0975104
:1053880003E19605D8A002D0460E12D097AF0FD0F1
:10539800520E9C6F96C09AF097C09BF09A1F9B1F65
:1053A8009A4B9B2B9AC09DF09BC09EF006D0420E54
:1053B8009C6F96C09DF097C09EF099BF07D09951F9
:1053C80003E19805D8A002D0460E12D099AF0FD0AD
:1053D800520E9F6F98C09AF099C09BF09A1F9B1F1E
:1053E8009A4B9B2B9AC0A0F09BC0A1F006D0420E0E
:1053F8009F6F98C0A0F099C0A1F0000E796F030EBE
:105408007A6FEA0E7B6F210E7C6F9CC07DF07E6BFD
:105418009DC07FF09EC080F09FC081F0826BA0C0CD
:1054280083F0A1C084F0F8EC19F0000E00016E6F53
:10543800030E6F6FC9EC32F01200000E176E000EEB
:10544800116E3ED010C091FF000E0F6E34D00F5079
:10545800010D000EF324D96E010EF420DA6EDF5030
:10546800916E0F2A0E500F5CD8B003D0AFEC36F017
:105478003FD0A8EC36F01FD096841FD010500109F9
:10548800916EE2D7968617D00F50010D000EF324C7
:10549800D96E010EF420DA6E91CFDFFF0F2A0E507D
:1054A8000F5CD8B004D0AFEC36F0120621D0A8ECCF
:1054B80036F001D09684122A1BD0000E126E18D036
:1054C8001250010AD8B4BED7030AD8B4C0D7010A0B
:1054D800D8B4D2D7080AD8B4D1D7070AD8B4D2D703
:1054E800010AD8B4D1D7030AD8B4E4D7010AE5D75A
:1054F80095BE959E95AC1200959C120098C07CF0C4
:1055080099C07DF09A0E00017E6F220E7F6F8EEC9F
:105518002FF0000198517C1950E199517D19D8A4B8
:105528001200030E9827000E992398C073F099C0B3
:1055380074F0010E756F59EC30F0000173519B6FD8
:105548009B51D8B41200040E9B6501D012009B0732
:10555800020E9827000E992398C0D9FF99C0DAFF48
:105568003F0EDE18D8B425D0E451D8A410D098C086
:10557800D9FF99C0DAFF300EDE18D8B402D0010E78
:1055880001D0000E6D6F9B519AEC33F012D09BC086
:1055980074F098C0D9FF99C0DAFF300EDE18D8B47D
:1055A80002D0010E01D0000E0001756FE451DAEC53
:1055B80030F000019B5139EC32F012000001756F98
:1055C80000017551D8A402D0000E1200755175253E
:1055D8002E0F766F000E776F7751010D000EF324B2
:1055E800D96E010EF420DA6E010EDF6E772B77513B
:1055F800010D000EF324D96E010EF420DA6E800E30
:10560800DF6E772B77C071F076516CEC32F00009C1
:10561800D8A402D0000E12000B0E0001746F620EA7
:10562800E82EFED7742FFCD700F00A0E0001716F28
:1056380076514AEC33F00009D8A402D0000E1200CB
:10564800000E0001776F090E776501D014D07751ED
:10565800010D000EF324D96E010EF420DA6E775195
:10566800030D310EF324E16E010EF420E26EDFCF5C
:10567800E7FF772BE8D7010E12000001766F030EC3
:105688000001746502D0000E12007651D8B404D01F
:10569800765176252E0F01D0000E776F000E786FA9
:1056A8007851010D000EF324D96E010EF420DA6E44
:1056B800020EDF6E782B7851010D000EF324D96E9F
:1056C800010EF420DA6E830EDF6E782B7851010D0F
:1056D800000EF324D96E010EF420DA6E74C0DFFFD9
:1056E800782B78C071F077516CEC32F00009D8A4AF
:1056F80002D0000E12000B0E0001756F620EE82E2C
:10570800FED7752FFCD700F0010E0001716F77519D
:105718004AEC33F00009D8A402D0000E12000001B0
:105728007451010DCE0EF324D96E000EF420DA6EFA
:1057380000C1DFFFDF50120000017D6F3CD07CB15B
:1057480002D0829001D0828012007CB102D0829275
:1057580001D0828212007CB102D0829401D082846E
:1057680012007CB102D0829601D0828612007CB1F0
:1057780002D0829A01D0828A12007CB102D083942E
:1057880001D0838412007CB102D0839601D0838635
:1057980012007CB102D0839201D0838212007CB1C6
:1057A80002D0839801D0838812007CB102D0839004
:1057B80001D08380120000017D51000AD8B4BFD700
:1057C800010AD8B4C2D7030AD8B4C5D7010AD8B4D5
:1057D800C8D7070AD8B4CBD7010AD8B4CED7030A9A
:1057E800D8B4D1D7010AD8B4D4D70F0AD8B4D7D7E8
:1057F800DCD7000E00016E6F000E6D6F78EC36F08E
:105808000001716F000E6E6F010E6D6F78EC36F04F
:105818000001726F725104E1F10E715DD8A004D0DD
:10582800000E726F000E716F71C007F072C008F041
:10583800000E6E6F020E6D6F78EC36F00001716F1E
:10584800000E6E6F030E6D6F78EC36F00001726F0C
:10585800725104E1F10E715DD8A004D0000E726F90
:10586800000E716F71C005F072C006F0000E6E6F09
:10587800040E6D6F78EC36F00001716F000E6E6FDC
:10588800050E6D6F78EC36F00001726F725104E10D
:10589800150E715DD8A004D0000E726F0A0E716FDC
:1058A80071C025F072C026F01200000E0001D56FFD
:1058B800000ED46F000ED76F000ED66F0001D751BF
:1058C80026E1650ED65DD8B022D0B00E6D6F000E01
:1058D8006E6FF5EC34F00009D8B4F0D7200E000153
:1058E800B06105D00A0EB019D8B411D0E3D7680E4C
:1058F800D425D96E020ED521DA6EB0C0DFFFD44BA5
:10590800D52BD55104E17F0ED45DD8A0D3D7680E2E
:10591800D425D96E020ED521DA6E000EDF6ED45171
:10592800D511D8B412000CD005EC32F0120036ECC8
:1059380036F012000CEC34F012002FEC1DF01200BF
:1059480002016851230AD8B4F8D76E0AD8B4F2D73E
:105958001F0AD8B4ECD7040AD8A41200E5D700016E
:105968008A6F00018A05D8A406D08451846F856B9C
:1059780084BF85071200020E8A19D8A40DD084515D
:10598800020DB60EF324D96E000EF420DA6EDECFC7
:1059980084F0DDCF85F01200030E8A19D8A427D031
:1059A800FF0E866FFF0E876F86518425886F000E65
:1059B80084BFFF0E8721896F89BF24D089BF06D095
:1059C800895120E11A0E885DD8B01CD0000E866F70
:1059D800020E876FD8908835D96E8935DA6ED890DF
:1059E800D936DA368651D9268751DA22D0D7040E2D
:1059F8008A19D8A407D091EC36F082C084F083C00D
:105A080085F01200000E0001856F000E846F1200F1
:105A180000017A6F00017A51D8B404D07A517A25FE
:105A28002E0F01D0000E7B6F000E7C6F7C51010D94
:105A3800000EF324D96E010EF420DA6E010EDF6E2B
:105A48007C2B7C51010D000EF324D96E010EF4203D
:105A5800DA6E820EDF6E7C2B7CC071F07B516CECB1
:105A680032F00009D8B412000B0E0001786F620EF4
:105A7800E82EFED7782FFCD700F0020E0001716FD8
:105A88007B514AEC33F00009D8B4120001010051EF
:105A98000001786F796B74C0D9FF75C0DAFF78C0E0
:105AA800DEFF79C0DDFF010101510001786F796BDC
:105AB80076C0D9FF77C0DAFF78C0DEFF79C0DDFF96
:105AC8001200000E00016E6F090E6E6501D025D020
:105AD8006E51030D4F0EF324D96E010EF420DA6EC9
:105AE800DE04D8B41AD06E51030D4F0EF324D96ECC
:105AF800010EF420DA6E030EDE18D8B40ED06E5103
:105B0800030D4F0EF324D96E010EF420DA6E060E43
:105B1800DE18D8B402D06E2BD7D70A0E6E6125D006
:105B28006EC01BF0000E0A6E0A0E096E0F0159694D
:105B380057691F0E516F3F0E526F1B50010D950E86
:105B4800F324F66E210EF420F76E0800F5CF5AFF05
:105B58005399FC0E53175B8F5B9D5B895B855B815B
:105B68000E01B691C691BE8112000E01C691BE917A
:105B7800120096C07CF097C07DF0790E00017E6F10
:105B8800220E7F6F8EEC2FF0000196517C1946E1B2
:105B980097517D19D8A41200010E756F040E962531
:105BA800736F000E9721746F59EC30F073C098F042
:105BB80074C099F098C06DF099C06EF0000E0001A5
:105BC800706F640E6F6FFDEC35F06DC0DEF06EC067
:105BD800DFF0DEC06DF0DFC06EF0000E0001706F08
:105BE800640E6F6F20EC33F06DC09AF06EC09BF0BE
:105BF800000E0001796F030E7A6F280E7B6F220E5C
:105C08007C6F9AC07DF09BC07EF0F8EC19F0000E16
:105C180000016E6F030E6F6FC9EC32F012000001C5
:105C28006D6F32D0000E82B0010E6E6F4BD0000E39
:105C380082B2010E6E6F46D0000E82B4010E6E6FF6
:105C480041D0000E82B6010E6E6F3CD0000E82BAB3
:105C5800010E6E6F37D0000E83B4010E6E6F32D016
:105C6800000E83B6010E6E6F2DD0000E83B2010EAA
:105C78006E6F28D0000E83B8010E6E6F23D0000E11
:105C880083B0010E6E6F1ED000016D51000AD8B4AA
:105C9800C9D7010AD8B4CBD7030AD8B4CDD7010ADB
:105CA800D8B4CFD7070AD8B4D1D7010AD8B4D3D734
:105CB800030AD8B4D5D7010AD8B4D7D70F0AD8B4AD
:105CC800D9D7DDD76E511200000E0001D36F000E38
:105CD800D26F760E6F6F000E706FC1EC33F000015B
:105CE8007629D8B41200D3BF06D0D351F2E1640E9E
:105CF800D25DD8B0EED7000E836F000E826F83BFDF
:105D080006D0835128E10C0E825DD8B024D0760EDF
:105D18008225D96E000E8321DA6ED2C06DF0D3C011
:105D28006EF0000E706F0C0E6F6FFDEC35F0000E0C
:105D38000001746F050E756F6D5174276E517523D0
:105D480082517425E16E83517521E26EDFCFE7FF42
:105D5800824B832BD4D7D24BD32BBBD707C073F03E
:105D680008C074F0000E00016E6F000E6D6F73C0F6
:105D78006FF030EC34F0000E00016E6F010E6D6FA5
:105D880074C06FF030EC34F005C073F006C074F0E6
:105D9800000E00016E6F020E6D6F73C06FF030EC75
:105DA80034F0000E00016E6F030E6D6F74C06FF05B
:105DB80030EC34F025C073F026C074F0000E0001FA
:105DC8006E6F040E6D6F73C06FF030EC34F0000E20
:105DD80000016E6F050E6D6F74C06FF030EC34F01B
:105DE800000E00016E6F320E6D6FE9EC35F0120097
:105DF8000E0EF66E6D0EF76E000EF86E01EED0F018
:105E080010EE14F00900F5CFEEFFE550E150FAE18D
:105E180005EE00F014EEB0F0EE6AE550E150FCE15A
:105E2800E250FAE104EE00F011EE00F0EE6AE550FF
:105E3800E150FCE1E250FAE103EE00F0800EEE6A78
:105E4800E806FDE102EE00F0E80EEE6AE806FDE184
:105E580001EE00F0A20EEE6AE806FDE100EEB6F0F3
:105E68002F0EEE6AE806FDE100EE01F0260EEE6A5E
:105E7800E806FDE143904392000EF86E0001ECEF56
:105E880026F0040E00017A6F570E796F5AEC31F044
:105E9800000E00016E6F960E6D6FE9EC35F0000E86
:105EA80000017A6F000E796F5AEC31F08CB811D07E
:105EB800040E00017A6F570E796F5AEC31F054ECEA
:105EC80011F0000E00017A6F000E796F5AEC31F074
:105ED800120099EC36F0E806D8A4E8D7AA0E00011B
:105EE8006F6F000E706FC1EC33F0FA0E0001AA1943
:105EF800D8A4DCD7030E7A6FE80E796F5AEC31F02C
:105F080068EC2EF0000E00017A6F000E796F5AECE3
:105F180031F0CCD732D07CC073F07DC074F07EC035
:105F280075F07FC076F07EC06DF07FC06EF096ECA5
:105F380034F06DC077F06EC078F0D2EC2FF000012D
:105F480073517411D8A405D07CC07CF07DC07DF05D
:105F58001200010E7C256D6F000E7D216E6F7EC0D4
:105F6800F6FF7FC0F7FF0800F5506F6F706B11ECFC
:105F780035F06DC07CF06EC07DF000017C517D1164
:105F8800D8B407D07CC0D9FF7DC0DAFFDF50D8A4D1
:105F9800C2D7000E7C6F000E7D6F120035D073C023
:105FA800D9FF74C0DAFFDF50D8B410D073C0D9FF5E
:105FB80074C0DAFFDF500001796F75C0F6FF76C054
:105FC800F7FF0800F5507919D8B41AD075C0F6FF54
:105FD80076C0F7FF0800F5500001796F7A6B791FDA
:105FE8007A1F794B7A2B73C0D9FF74C0DAFFDF5060
:105FF8007B6F7B517925736F000E7A21746F1200C5
:10600800734B742B754B762B00017707D8A0780754
:106018007729C5E17829D8A4C2D7000E746F000E7D
:10602800736F1200000E0001726F70AF06D06F6DB3
:10603800701FD8B0702B010E726F6EAF06D06D6DE9
:106048006E1FD8B06E2B010E721B000E746F000EFF
:10605800736F6F517011D8B41CD0010E716F04D0DA
:10606800D8906F377037712B70AFFAD7D8907337D5
:1060780074376F516D5D70516E59D8A005D06F514E
:106088006D5F70516E5B7381D89070336F33712F71
:10609800EDD77251D8B404D0736D741FD8B0742B77
:1060A80073C06DF074C06EF01200000E00017B6FBB
:1060B800000E7A6F33D073C0D9FF74C0DAFF2F0E89
:1060C800DF6429D073C0D9FF74C0DAFF3A0EDF60ED
:1060D80022D07AC06DF07BC06EF0000E706F0A0E91
:1060E8006F6FFDEC35F06DC07AF06EC07BF0D00EAE
:1060F8000001766FFF0E776F73C0D9FF74C0DAFFA7
:10610800DF50786F796B76517827775179237851FA
:106118007A2779517B23734B742B75077551D8A453
:10612800CAD77AC073F07BC074F012000001796F8F
:1061380000017951D8B404D0795179252E0F01D0B6
:10614800000E786F000E7A6F7A51010D000EF3245D
:10615800D96E010EF420DA6E030EDF6E7A2B7A51B7
:10616800010D000EF324D96E010EF420DA6E120E22
:10617800DF6E7A2B7A51010D000EF324D96E010ED1
:10618800F420DA6E74C0DFFF7A2B7A51010D000E0D
:10619800F324D96E010EF420DA6E76C0DFFF7A2B75
:1061A8007AC071F078516CEC32F012000001776F10
:1061B80000017751D8B404D0775177252E0F01D03C
:1061C800000E766F000E786F7851010D000EF324E3
:1061D800D96E010EF420DA6E030EDF6E782B78513B
:1061E800010D000EF324D96E010EF420DA6E130EA1
:1061F800DF6E782B7851010D000EF324D96E010E55
:10620800F420DA6E74C0DFFF782B7851010D000E90
:10621800F324D96E010EF420DA6E75C0DFFF782BF7
:1062280078C071F076516CEC32F0120000017F6F8B
:1062380000017F51D8B404D07F517F252E0F01D0A3
:10624800000E7E6F000E806F8051010D000EF3244A
:10625800D96E010EF420DA6E030EDF6E802B8051AA
:10626800010D000EF324D96E010EF420DA6E140E1F
:10627800DF6E802B8051010D000EF324D96E010EC4
:10628800F420DA6E7CC0DFFF802B8051010D000EF8
:10629800F324D96E010EF420DA6E7DC0DFFF802B67
:1062A80080C071F07E516CEC32F01200040E0001D7
:1062B8007B6F36D0000E6D6F7B059AEC33F01FD0E4
:1062C800010E00016D6F7B059AEC33F018D079C090
:1062D80074F07AC075F0000E0001776F0A0E766FC1
:1062E80074EC34F000017551000AD8A408D0745138
:1062F800000AD8B4DFD7010AD8B4E2D7030A79C0B4
:106308006DF07AC06EF0000E0001706F0A0E6F6FAC
:1063180020EC33F06DC079F06EC07AF000017B0795
:106328007B51D8B41200D3D7D9CF3DF0DACF3EF0A5
:10633800F3CF3FF0F4CF40F0D4AE0ED00E01C5AB92
:106348000BD0D49EFC0ED36E180ED26ED48E62EC97
:1063580022F00E01C59B15D00E01C0B1C8A105D011
:1063680021EC2AF00E01C8910CD0C0B3C8A304D008
:10637800C8932DEC35F005D0C0BBC8AB02D072EC89
:106388001EF040C0F4FF3FC0F3FF3EC0DAFF3DC03F
:10639800D9FF439211000E01C193C993200EBC6E20
:1063A800010EBE6E200EBD6E000EBF6EFA0EBB6EE5
:1063B800FA0EBA6EBC8E0C0EAB6EAB8EAB98AD50AF
:1063C800FC0B0109AD6E0C0EA76EA78EA798AD50F9
:1063D800F30B0409AD6E010E196E000E0001CD6FAE
:1063E800000ECC6FCCC0CAF0CDC0CBF0000E6E6FE3
:1063F800000E6D6F000E706F000E6F6F24EC36F09C
:106408001200B70E00016E6F210E6F6FC9EC32F0EB
:10641800830E00016E6F220E6F6FC9EC32F0920E80
:1064280000016E6F220E6F6FC9EC32F0450E00014D
:106438006E6F220E6F6FC9EC32F0960E00016E6F10
:10644800220E6F6FC9EC32F00F0E00016E6F220E34
:106458006F6FC9EC32F0940E00016E6F220E6F6FF1
:10646800C9EC32F0B7EC34F012000001976F000E5F
:106478000001966F080EE46502D0000EE46FE45147
:10648800D8A404D09751E7EC33F005D097C074F046
:10649800E45141EC2BF00001966F000E796F030E6A
:1064A8007A6F320E7B6F220E7C6F010E97257D6FFF
:1064B8007E6B000E7E2396C07FF0806BF8EC19F09F
:1064C800000E00016E6F030E6F6FC9EC32F0120000
:1064D8000001726F000E0001736F010E1764FDD783
:1064E80011EC36F072C010F071C00EF014D0010E2D
:1064F800126E14D0020E176403D012508009116E68
:106508001150D8B40FD09684D8EC34F00001732B16
:10651800050E736105D0000E176EE9D7968002D07C
:10652800000E12001250D8A4E5D7000E176E010E07
:106538001200000E0001756F000E766F000E776F67
:10654800000E786F6DA108D07151752772517623AE
:106558007351772374517823D89071377237733712
:106568007437D89070336F336E336D336D516E114D
:106578006F117011D8A4E6D775C06DF076C06EF0B3
:1065880077C06FF078C070F0120016D06EC0F6FFBA
:106598006FC0F7FF000EF86E0E0EF76403D0080008
:1065A800F55005D0F6CFE1FFF7CFE2FFE750A1ECB9
:1065B80036F000016E4B6F2B6EC0F6FF6FC0F7FF11
:1065C800000EF86E0E0EF76403D00800F55005D0E3
:1065D800F6CFE1FFF7CFE2FFE7500009D8B4120089
:1065E800D5D7000E0001706F880E6E6F220E6F6F88
:1065F800C9EC32F000017051D8B403D02C0EA1ECD4
:1066080036F04D0E00016E6F220E6F6FC9EC32F03E
:10661800010E0001706F7051D8A406D08D0E6E6FF8
:10662800220E6F6FC9EC32F0B70E00016E6F210EAB
:106638006F6FC9EC32F01200000E0001736F000E8C
:10664800726F6F517011D8B41CD0010E716F04D0E5
:10665800D8906F377037712B70AFFAD7D8907237E0
:1066680073376F516D5D70516E59D8A005D06F5159
:106678006D5F70516E5B7281D89070336F33712F7C
:10668800EDD772C06DF073C06EF012000001726F2A
:10669800010E1764FDD711EC36F0000172510109A3
:1066A800106E71C00EF0000E176E0B0E126E9686ED
:1066B80096800ED0020E176403D012508009116E16
:1066C8001150D8B405D09684D8EC34F0000E1200DE
:1066D8001250D8A4EFD7000E176E010E12009E8636
:1066E800000E9B6E000E9B6E440E9A6E240E9D6EDD
:1066F800900E9C6E000E166E1628D8B40CD016504C
:10670800010D000EF324D96E040EF420DA6E000E8B
:10671800DF6E162AF1D7000E156E15C016F0000EA2
:10672800136E0E01B88BC89BC08B120000016E6FF0
:1067380018D06DB102D0829C01D0828C12006DB14C
:1067480002D0839001D0838012006DB102D083986B
:1067580001D0838812006DB102D0829E01D0828E52
:10676800120000016E51010AD8B4E3D7030AD8B465
:10677800E6D7010AD8B4E9D7EED7000E0001736F47
:10678800000E726F73BF06D073511CE10C0E725D60
:10679800D8B0120099EC36F00009D8B4FBD7710EC6
:1067A80000016D6F000E6E6FF5EC34F00001725150
:1067B8006F25D96E73517021DA6E71C0DFFF724B8D
:1067C800732BE0D7120000016D6F14D0000E82BC4D
:1067D800010E6E6F1BD0000E83B0010E6E6F16D0C7
:1067E800000E83B8010E6E6F11D0000E82BE010E2E
:1067F8006E6F0CD000016D51010AD8B4E7D7030AB7
:10680800D8B4E9D7010AD8B4EBD7EFD76E51120044
:10681800680E00017C6F020E7D6F5D0E7E6F220E8A
:106828007F6F8EEC2FF07CC080F07DC081F000017E
:1068380080518111D8B41200050E8027000E8123E3
:1068480080C073F081C074F0010E756F59EC30F0A0
:1068580000017351E16F1200000EF2BE010E00013B
:10686800706F6DC071F06EC072F0310E7B6E72C0C9
:106878007AFF71C079FF6FC07CFF7F8EF29E550E44
:10688800816EAA0E816E808880B8FED7000170B133
:1068980002D0F29E01D0F28E7F9E1200030E8CEC85
:1068A80021F0000E0001796F030E7A6FBA0E7B6F2C
:1068B800210E7C6F1DC07DF01EC07EF01FC07FF0D2
:1068C80020C080F021C081F022C082F0F8EC19F0DD
:1068D800000E00016E6F030E6F6FC9EC32F01200EC
:1068E800000176517711D8B418D0010E786F04D012
:1068F800D89076377737782B77AFFAD77651745D9B
:1069080077517559D8A004D07651745F7751755B6B
:10691800D89077337633782FF1D774C074F075C078
:1069280075F012006DC071F06EC072F003D00001F6
:10693800714B722B71C0F6FF72C0F7FF0800F5505B
:106948000009D8A4F4D76DC06FF06EC070F00001D4
:106958006F1F701F6F4B702B71516F256D6F7251C8
:1069680070216E6F1200FDEC2BF0000E0001796FA4
:10697800030E7A6FD40E7B6F210E7C6F07C07DF0FB
:1069880008C07EF005C07FF006C080F025C081F009
:1069980026C082F0F8EC19F0000E00016E6F030EAD
:1069A8006F6FC9EC32F01200130E926E000E946EE7
:1069B800080E956E000E966E000E976E0E01B88149
:1069C800B883C891C893C081C08393EC35F0150E85
:1069D80000016F6FC60EE82EFED76F2FFCD700F0B0
:1069E800120016501518D8A402D0000E1200155027
:1069F800010D000EF324D96E040EF420DA6E6DC07A
:106A0800E1FF6EC0E2FFDFCFE7FF152A1528D8A403
:106A180002D0000E156E010E12006DC0D9FF6EC0B7
:106A2800DAFF00016F51DE18D8A405D06DC06DF0F3
:106A38006EC06EF012006DC0D9FF6EC0DAFF6D4BEC
:106A48006E2BDF50D8A4E9D7000E6D6F000E6E6F65
:106A58001200130E926E000E946E080E956E000EC4
:106A6800966E000E976E0E01B881B883C891C893D0
:106A7800C081C083A9EC35F0150E296EC60EE82E2C
:106A8800FED7292EFCD700D01200959A89968998AE
:106A9800000E00016D6F0CD08486050EE82EFED71F
:106AA80000F08496050EE82EFED700F000016D2B4D
:106AB800080E6D65F1D789868988000E0D6E120063
:106AC800959A89968998000E276E0BD08486050EB4
:106AD800E82EFED700F08496050EE82EFED700F0CB
:106AE800272A080E2764F2D789868988000E0D6E3A
:106AF8001200000E0001DB6F000EDA6F000E046E4C
:106B0800000E036E900ED46E430ED56EFC0ED36E3F
:106B1800180ED26E0E01B58BC59BBD8B120091CF9E
:106B28006EF0959A959C959E969C969A000E0F6E7F
:106B380049EC35F00E01C891C893000E126E000E94
:106B4800176E000E116E958A120091CF28F0959A53
:106B5800959C959E969C969A000E0F6E64EC35F067
:106B68000E01C891C893000E126E000E176E000E2B
:106B7800116E958A120000016EAF0DD06DC06FF0D6
:106B88006EC070F06F1F701F6F4B702B6FC06DF071
:106B980070C06EF012006DC06DF06EC06EF0120025
:106BA800276E08D0827C120083701200837812004E
:106BB800827E12002750010AD8B4F4D7030AD8B449
:106BC800F3D7010AD8B4F2D7F3D70E01BD9B6DC035
:106BD80003F06EC004F0BD8B07D0E40E00D000D0E7
:106BE800E82EFCD700D000D003500410D8B412000F
:106BF800F4D700016D516F03F3CF71F0F4CF72F049
:106C08006D517003F35072276E516F03F350722762
:106C180071C06DF072C06EF01200000E176E06D0D3
:106C28000A0E176403D0D8EC34F0120096CF70F037
:106C38001F0E00017017D8A4F3D794A41200F0D740
:106C48000001FF0E6D17030E6E17FF0E6F17030E70
:106C580070177051AA6E6FC0A9FF6E51A66E6DC0F5
:106C6800A5FF1200680E00017C6F020E7D6F690E91
:106C78007E6F220E7F6F8EEC2FF000017C517D110C
:106C8800D8B41200FF00120000016F6F000E00015F
:106C98006E6F3A0E6F6105D02F0E6F6502D0010E30
:106CA8006E6F6EC06DF06D3112000E01C197C997FD
:106CB800400EB66E010EB86E200EB76E000EB96E9D
:106CC800FA0EB56EFA0EB46E120000016E6F000E69
:106CD80000016D6F2F0E6E6505D03A0E6E6102D001
:106CE800010E6D6F6D5112006DC06FF06EC070F0C7
:106CF800310E7B6E70C07AFF6FC079FF808000F024
:106D080000F07C50120019FC19FC19FC19FC19FC44
:106D180019FC19FC19FC19FC19FC000E8CEC21F06B
:106D280076C082F077C083F0120016501518D8B4D8
:106D380002D0010E1200000E120000016D6F9DA21C
:106D4800FED76DC099FF1200968A96889686120023
:0C6D580045EC2FF01200969A968812006D
:020000040030CA
:0C000000ECFF3DFF9FFFFFDCFFFFFFFF58
:00000001FF
